:100000000C9462000C948A000C948A000C948A0070
:100010000C948A000C948A000C948A000C948A0038
:100020000C948A000C948A000C948A000C94730639
:100030000C948A000C948A000C948A000C948A0018
:100040000C940E050C948A000C948A000C948A007F
:100050000C948A000C948A000C948A000C948A00F8
:100060000C9458050C948A0000000000240027001E
:100070002A0000000000250028002B0000000008D6
:10008000000201000003040700000000000000005F
:1000900000000000230026002900040404040404D6
:1000A0000404020202020202030303030303010227
:1000B00004081020408001020408102001020408F6
:1000C0001020740711241FBECFEFD8E0DEBFCDBFD4
:1000D00011E0A0E0B1E0EAE0FAE102C005900D9283
:1000E000A837B107D9F722E0A8E7B1E001C01D9217
:1000F000A834B207E1F710E0C2E6D0E004C02197CF
:10010000FE010E94FD0CC136D107C9F70E94BA0753
:100110000C94030D0C9400008F929F92AF92BF92AB
:10012000FF920F931F93CF93DF93F0902D022BE05C
:100130002F1508F44CC020912F0208E512E0021B95
:10014000110927FD1395000F111F000F111F20919A
:100150002E02C8E8D0E0C21BD10927FDD395CC0FF1
:10016000DD1FCC0FDD1F4E010D2E000CAA08BB08B1
:100170009801012E000C440B550B281939094A0926
:100180005B09DC010E94E90A24EB30E040E050E02A
:100190000E94BF0A820E931EA41EB51E8C169D06D9
:1001A0002CF0E801801691060CF4E4012297CC0FA4
:1001B000DD1F2FB7F8948F2D90E0FC01EE0FFF1F8D
:1001C000E80FF91FE85FFD4FD283C1832FBFDF9196
:1001D000CF911F910F91FF90BF90AF909F908F9004
:1001E000089590E0FC01E458FF4F2491FC01E25592
:1001F000FF4F3491FC01E656FF4FE491EE23C9F026
:10020000222339F0233001F1A8F4213019F12230F2
:1002100029F1F0E0EE0FFF1FEE58FF4FA591B491CA
:100220008FB7F894EC91611126C030953E233C9332
:100230008FBF08952730A9F02830C9F0243049F73E
:10024000809180008F7D03C0809180008F778093A4
:100250008000DFCF84B58F7784BDDBCF84B58F7D01
:10026000FBCF8091B0008F778093B000D2CF809188
:10027000B0008F7DF9CF3E2BDACFCF93DF9390E0A4
:10028000FC01E255FF4F249186569F4FFC0184915B
:100290008823D1F090E0880F991FFC01E859FF4FA7
:1002A000A591B491FC01EE58FF4FC591D491611115
:1002B0000EC09FB7F8948C91E22FE0958E238C931B
:1002C0002881E223E8839FBFDF91CF9108958FB704
:1002D000F894EC91E22BEC938FBFF6CF3FB7F894F4
:1002E0008091040290910502A0910602B09107024C
:1002F00026B5A89B05C02F3F19F00196A11DB11D81
:100300003FBFBA2FA92F982F8827BC01CD01620FBC
:10031000711D811D911D42E0660F771F881F991F77
:100320004A95D1F708958F929F92AF92BF92CF9244
:10033000DF92EF92FF924B015C010E946E016B0114
:100340007C010E946E016C197D098E099F09683E2F
:10035000734081059105A8F321E0821A9108A10854
:10036000B10888EEC80E83E0D81EE11CF11C811490
:100370009104A104B10429F7FF90EF90DF90CF9092
:10038000BF90AF909F908F900895AF92BF92CF9201
:10039000DF92EF92FF920F931F93CF93DF936C0145
:1003A0007B018B01040F151FEB015E01AE18BF0826
:1003B000C017D10759F06991D601ED91FC910190D8
:1003C000F081E02DC6010995892B79F7C501DF91F0
:1003D000CF911F910F91FF90EF90DF90CF90BF9042
:1003E000AF90089508952091A001260F3327331F61
:1003F00021323105ECF42091C401FC0190E080E051
:10040000243069F082E00895A091A0012191AC010F
:1004100040585E4FA40FB52FB11D2C93019686173F
:1004200098F38091A001680F6093A00180E0089587
:1004300081E0089508958FEF9FEF08958FEF9FEF6C
:1004400008958091790190E09195819591090895A1
:10045000CF93DF93CB01EA01642F0E94F301CE0119
:10046000DF91CF910895CF93DF931F92CDB7DEB781
:10047000698361E0CE0101960E94F30181E090E082
:100480000F90DF91CF91089590E080E00895FC01F6
:1004900001900020E9F73197AF01481B590BBC01CF
:1004A00080E392E00C94C5018F929F92AF92BF922D
:1004B0000F931F93CF93DF93CDB7DEB7A1970FB6FE
:1004C000F894DEBF0FBECDBF19A2423008F44AE057
:1004D0008E010F5D1F4F842E912CB12CA12CA501F4
:1004E00094010E94F10AE62FB901CA01EA30F4F43E
:1004F000E05DD801EE938D01232B242B252B79F77A
:1005000090E080E0109719F0CD010E944702A1967B
:100510000FB6F894DEBF0FBECDBFDF91CF911F9114
:100520000F91BF90AF909F908F900895E95CE1CFBD
:100530000C9447020F931F9390E0FC01E255FF4F8C
:100540006491FC01E656FF4FE491F0E0EE0FFF1FCF
:10055000E057FF4F8591949100E412E42FE030E0E2
:10056000462F0E942F07611571058105910529F01D
:100570006F5F7F4F8F4F9F4F9F701F910F91089517
:100580000F931F93CF93DF9360E088E00E94F10008
:1005900003E010E0C8010197F1F761E088E00E94F4
:1005A000F100C3E2D0E0CE010197F1F760E088E00E
:1005B0000E94F10087E00E949A020E94350C2DEC07
:1005C0003CEC48E652E40E94940B0E94060C6093B7
:1005D000FB017093FC018093FD019093FE0160E0AC
:1005E00085E00E94F100C8010197F1F761E085E024
:1005F0000E94F1002197F1F760E085E00E94F10090
:1006000084E00E949A020E94350C2DEC3CEC48E6F6
:1006100052E40E94940B0E94060C6093EE017093CA
:10062000EF018093F0019093F101DF91CF911F9141
:100630000F910895CF93DF93EC0160E08E810E94CB
:10064000F10061E08E810E94F10060E08E810E94E5
:10065000F1008BE891E00197F1F7DF91CF910895D8
:10066000CF92DF92EF92FF920F931F93CF93DF937E
:100670006C017C0187E0E80EF11CD0E0C0E0062FA1
:1006800010E0B8010C2E02C0759567950A94E2F748
:100690006170F70181917F010E94F1002196C430C1
:1006A000D10579F7C601DF91CF911F910F91FF908E
:1006B000EF90DF90CF900C941A03CF92DF92EF92DD
:1006C000FF920F931F93CF93DF93EC01F62E642FCD
:1006D0008C810E94F1008D818F3F19F060E00E94B3
:1006E000F1000F2D10E08F8584FF25C06E0187E09B
:1006F000C80ED11CF12CE12CB8010E2C02C075954E
:1007000067950A94E2F76170F60181916F010E948A
:10071000F100FFEFEF1AFF0A88E0E816F10461F735
:10072000CE01DF91CF911F910F91FF90EF90DF905D
:10073000CF900C941A03B80184E0759567958A955B
:10074000E1F7CE010E9430036F2DCE01DF91CF91F2
:100750001F910F91FF90EF90DF90CF900C9430039A
:1007600040E0682F80E392E00C945D0381E00E94FA
:10077000B0038BE39FE10197F1F70895CF93DF93E7
:10078000823029F490913F02986090933F028093C9
:1007900043021092440280E48093450280E18093FA
:1007A000460280E58093470261E0809134020E9416
:1007B0003D01809135028F3F19F061E00E943D01BB
:1007C00061E0809136020E943D01C0E3D2E09E01CB
:1007D0002053324080913F0284FD0BC084E090E0C2
:1007E00021962817390744F461E08E810E943D016B
:1007F000EECF88E090E0F4CF8BE39DE00197F1F736
:1008000060E0809134020E94F10060E08091360245
:100810000E94F100809135028F3F19F060E00E9444
:10082000F10080913F0284FD34C063E080E392E0F8
:100830000E943003CBE4D6E4CE010197F1F763E0E8
:1008400080E392E00E9430032197F1F763E080E3B8
:1008500092E00E94300383E592E00197F1F762E0B5
:1008600080E392E00E94300380913F0280620E9408
:10087000B00384E0809340028CE00E94B0030E94A9
:10088000B60382E08093410286E0DF91CF910C9421
:10089000B00380620E94B0038BE496E40197F1F705
:1008A00080913F0280620E94B00383E592E001974D
:1008B000F1F780913F0280620E94B003D5CF909102
:1008C0004302691710F06FEF690FE62FF0E0E05D6B
:1008D000FD4F9489890F80680C94B0030E94B60381
:1008E0000E94C00261E086E00E94F10060E080E0CA
:1008F0000E945F048CE091E00E94980261E080E039
:100900000E945F048AE191E00E9498028091EE01CA
:100910009091EF01A091F001B091F1010B97A10529
:10092000B105F0F2089541E00E945D0381E090E09E
:1009300008951F93CF93DF9385ED8093BC00809142
:100940007C0190917D01A0917E01B0917F0107967D
:10095000A11DB11D23E0B695A795979587952A957A
:10096000D1F72091BC0024FD03C01092C40152C0F5
:1009700040917C0150917D0160917E0170917F01D9
:10098000452B462B472B69F30097A105B10541F094
:100990002AE22A95F1F700C00197A109B109E1CF38
:1009A00080917B01C1E0C0937A01882399F1D091B5
:1009B000B8001091BA008091BC008A7B8093BC0083
:1009C00060E082E10E94F10060E083E10E94F100BA
:1009D0001092C401C093C6011092C50161E082E18A
:1009E0000E94F10061E083E10E94F1008091B90072
:1009F0008E7F8093B9008091B9008D7F8093B9007C
:100A000088E48093B80085E48093BC001093BA001A
:100A1000D093B800DF91CF911F9108951F920F924C
:100A20000FB60F9211242F933F938F939F93AF9301
:100A3000BF938091000290910102A0910202B091B7
:100A400003023091FF0123E0230F2D3758F5019663
:100A5000A11DB11D2093FF0180930002909301021C
:100A6000A0930202B09303028091040290910502C8
:100A7000A0910602B09107020196A11DB11D8093BD
:100A8000040290930502A0930602B0930702BF915F
:100A9000AF919F918F913F912F910F900FBE0F902B
:100AA0001F90189526E8230F0296A11DB11DD2CFE5
:100AB0001F920F920FB60F9211242F933F934F93D3
:100AC0005F936F937F938F939F93AF93BF93EF93B6
:100AD000FF938091B900887F803609F44AC0F0F511
:100AE000883209F4A5C018F5803109F499C0B8F42A
:100AF000882309F4F5C0883009F492C0FF91EF9182
:100B0000BF91AF919F918F917F916F915F914F9125
:100B10003F912F910F900FBE0F901F901895883125
:100B200009F486C0803251F78093C30114C0803429
:100B300009F49BC040F48033B9F38833F9F680930D
:100B4000C30185ECAEC0803509F483C0883509F453
:100B500094C0883499F60E949904D0CF883909F45A
:100B60008AC038F5883729F050F4883611F080377C
:100B700029F683E08093C4011092C20155C08838E1
:100B800009F479C0803919F0803809F0B7CF809125
:100B9000C201803208F06FC0E091C20181E08E0F87
:100BA0008093C2018091BB00F0E0EE55FE4F808340
:100BB0003BC0803B39F0D0F4803A09F477C0883AE2
:100BC00009F09CCF84E08093C4011092A10110929F
:100BD000A001F0E0E0E009958091A00181110FC033
:100BE00081E08093A0011092800109C0803C09F44B
:100BF000A8CF883C09F4A5CF883B09F07FCFE091CE
:100C0000A10181E08E0F8093A101F0E0E058FE4F3A
:100C100080818093BB009091A1018091A00129C0A7
:100C20008091E9018093BB0085EC8093BC0066CF86
:100C30009091E8018091E701981758F5E091E8015B
:100C400081E08E0F8093E801F0E0E953FE4F808150
:100C5000E9CFE091E80181E08E0F8093E801809177
:100C6000BB00F0E0E953FE4F80839091E801809152
:100C7000E7019817C8F285E8D8CFE091E80181E054
:100C80008E0F8093E8018091BB00F0E0E953FE4FA6
:100C900080838091C60181115ECF81E08093C50180
:100CA00084EA8093BC001092C40128CF85EC809325
:100CB000BC001092C4018091C201803230F4E091F6
:100CC000C201F0E0EE55FE4F10826091C20170E06B
:100CD00082EA91E0F0E0E0E009951092C2010ECFC7
:100CE0001092C30138CF1F920F920FB60F921124AA
:100CF0002F933F934F935F936F937F938F939F9324
:100D0000AF93BF93CF93DF93EF93FF9380917801DD
:100D1000C0912C02D0E087FF24C010928500109271
:100D20008400809178018F5F8093780180917801B1
:100D3000082E000C990B8C179D0724F480917801E4
:100D40008C30C4F1809184009091850004968034A9
:100D50009C4908F47AC080918400909185000496A3
:100D600076C080917801082E000C990B8C179D0796
:100D7000C4F6E09178018E2FEE0F990BFC01EE0F77
:100D8000FF1FE80FF91FE85FFD4F808186FFC9CF85
:100D9000E09178018E2FEE0F990BFC01EE0FFF1FF3
:100DA000E80FF91FE85FFD4F808160E08F730E94BC
:100DB000F100B7CF2091840030918500E091780157
:100DC0008E2FEE0F990BFC01EE0FFF1FE80FF91F9E
:100DD000E85FFD4F81819281820F931F909389007C
:100DE00080938800E09178018E2FEE0F990BFC0123
:100DF000EE0FFF1FE80FF91FE85FFD4F808186FFB0
:100E000011C0E09178018E2FEE0F990BFC01EE0FCF
:100E1000FF1FE80FF91FE85FFD4F808161E08F73CE
:100E20000E94F100FF91EF91DF91CF91BF91AF91BF
:100E30009F918F917F916F915F914F913F912F91F2
:100E40000F900FBE0F901F90189580E49CE990932F
:100E50008900809388008FEF80937801E3CFCF9251
:100E6000DF92EF92FF920F931F93E82FF92F05C0A7
:100E7000015011092109310961F1908196239417DC
:100E8000B9F305C0015011092109310911F190810F
:100E900096239413F7CFC12CD12CE12CF12C0AC04E
:100EA0008FEFC81AD80AE80AF80A0C151D052E0596
:100EB0003F0579F080818623841791F36C2D7D2D79
:100EC0008E2D9F2D1F910F91FF90EF90DF90CF906F
:100ED000089560E070E080E090E01F910F91FF9036
:100EE000EF90DF90CF900895CF931092330210923D
:100EF000320284E091E090933102809330028BE0E3
:100F000080933402CFEFC09335028AE0809336029B
:100F100083E08093370282E08093380281E08093FF
:100F2000390210923A0210923B0210923C02109247
:100F30003D0210923E0210923F020E94BE03809139
:100F40002C028C30A0F491E0980F90932C028093A7
:100F50002D0290E0FC01EE0FFF1FE80FF91FE85F84
:100F6000FD4F88EB9BE092838183CF910895C093DE
:100F70002D02FBCF789484B5826084BD84B58160F6
:100F800084BD85B5826085BD85B5816085BD809154
:100F90006E00816080936E001092810080918100CC
:100FA00082608093810080918100816080938100C4
:100FB000809180008160809380008091B100846086
:100FC0008093B1008091B00081608093B0008091E7
:100FD0007A00846080937A0080917A0082608093A6
:100FE0007A0080917A00816080937A0080917A0003
:100FF000806880937A001092C10082E00E94BE0354
:1010000060E080E00E945F0488E291E00E94980224
:1010100061E080E00E945F0486E391E00E94980214
:1010200060ED77E080E090E00E9493010E94B603BB
:1010300061E088E00E943D0160E087E00E943D01A0
:1010400061E08DE00E943D0161E086E00E943D018B
:1010500061E085E00E943D0160E084E00E943D0186
:1010600060E086E00E94F10060E08DE00E94F10007
:1010700080912D028C3008F051C061E089E00E941F
:101080003D0180912D02282F30E0F901EE0FFF1F66
:10109000E20FF31FE85FFD4F9081907C9960908391
:1010A00010922E0210922F022CE0622F0E94F10C5F
:1010B000829FB001112430E020E0AB01420F531FAA
:1010C000FA01EE0FFF1FE40FF51FE85FFD4F90815F
:1010D00096FD16C02F5F3F4F2C30310571F78111FF
:1010E0000FC01092800082E08093810010928500F2
:1010F00010928400B19A80916F00826080936F009B
:10110000E0912D028E2F90E0FC01EE0FFF1FE80F03
:10111000F91FE85FFD4F8081806480831092F601A3
:101120001092F7011092F8011092F90188EE482E02
:1011300083E0582E612C712CC0E0D0E011E00E94B9
:10114000C0028091FB019091FC01A091FD01B09142
:10115000FE014E97A105B10508F493C08091FB01F3
:101160009091FC01A091FD01B091FE014E97A10567
:10117000B10508F4B9C18091FB019091FC01A091E7
:10118000FD01B091FE014F97A105B10508F45FC0C4
:101190002FB7F8948091000290910102A091020271
:1011A000B09103022FBF8093EA019093EB01A093CB
:1011B000EC01B093ED011092F2011092F301109244
:1011C000F4011092F50160E08DE00E94F10060E012
:1011D00086E00E94F1008AE590E00E948C00109267
:1011E000FA0160E080E00E945F048BE591E00E94DC
:1011F00098026091FB017091FC018091FD0190913A
:10120000FE014AE00E94540284E291E00E949802AA
:1012100060E089E00E945F048EE591E00E94980200
:101220006091EE017091EF018091F0019091F101D8
:101230004AE00E94540284E291E00E94980261E038
:1012400080E00E945F048EE691E00E949802809107
:10125000EE019091EF01A091F001B091F1010B9797
:10126000A105B10510F40E946E0462E370E080E015
:1012700090E00E949301209709F461CF0E94000042
:101280005ECF8091FA01811169CF0E94B60310935D
:10129000FA010E94C00260E080E00E945F048FE3D8
:1012A00091E00E9498026091FB017091FC01809195
:1012B000FD019091FE014AE00E94540284EB90E00F
:1012C0000E948C002FB7F894809100029091010247
:1012D000A0910202B09103022FBF8093F601909378
:1012E000F701A093F801B093F901C090EA01D09002
:1012F000EB01E090EC01F090ED01BC01CD016C1927
:101300007D098E099F0920E83EEE46E350E00E94E9
:10131000F10AA30192010E94F10AB901330F880B6F
:10132000990B0E94370C6093F2017093F301809344
:10133000F4019093F50161E080E00E945F0486E48F
:1013400091E00E94980220E030E040E151E4609199
:10135000F2017091F3018091F4019091F5010E94E6
:101360008F0B181624F08DE491E00E949802C09033
:10137000F201D090F301E090F401F090F501A701A3
:101380009601C701B6010E94EC0C882341F18FE45D
:1013900091E00E944702C090F201D090F301E090EA
:1013A000F401F090F50120E030E040EA50E4C7019C
:1013B000B6010E948F0B811165C061E08DE00E9433
:1013C000F1008091FB019091FC01A091FD01B09191
:1013D000FE014F97A105B10508F469C0BFCE4601D3
:1013E0005701E894B7F82FEF3FEF4FE75FE7C501EC
:1013F000B4010E94EC0C81110DC02FEF3FEF4FE7BD
:101400005FE7C501B4010E948F0B18161CF483E539
:1014100091E0BFCF2FEF3FEF4FE75FE4C701B60189
:101420000E94E70C18161CF487E591E0B2CF2FEF6D
:101430003FEF4FE75FECC701B6010E948F0B87FDBE
:10144000F3CF20E030E0A901C701B6010E948F0B65
:1014500087FF0AC041E06DE280E392E00E945D03F5
:10146000F7FAF094F7F8F09420E030E040E05FE322
:10147000C701B6010E94230B0E94060C4AE00E949D
:10148000540289CF20E030E040EA50E4C701B601C1
:101490000E94E70C18160CF494CF20E030E040E4F2
:1014A00050E4C701B6010E94E70C87FF8ACF20E015
:1014B00030E040E051E4C701B6010E94E70C87FD2F
:1014C000E8CE8091FB019091FC01A091FD01B091CB
:1014D000FE014E97A105B10508F0DBCE8091FA011F
:1014E000882309F4D6CE3ACE8091FA01882309F4F4
:1014F00042CE0E94B6030E94C0028AE590E00E949C
:101500008C0060E080E00E945F048BE591E00E9427
:1015100098026091FB017091FC018091FD01909116
:10152000FE014AE00E94540260E089E00E945F04EC
:101530008EE591E00E9498026091EE017091EF01BA
:101540008091F0019091F1014AE00E94540261E023
:1015500080E00E945F0481E691E00E9498020E9470
:101560006E048091FB019091FC01A091FD01B0916E
:10157000FE014F97A105B10508F4BDCFFCCD052EA6
:1015800097FB1EF400940E94D60A57FD07D00E94D4
:10159000F10A07FC03D04EF40C94D60A50954095FE
:1015A000309521953F4F4F4F5F4F0895909580950F
:1015B000709561957F4F8F4F9F4F08950E94130B39
:1015C000A59F900DB49F900DA49F800D911D112497
:1015D0000895B7FF0C94DE0A0E94DE0A821B930B6B
:1015E0000895A1E21A2EAA1BBB1BFD010DC0AA1F64
:1015F000BB1FEE1FFF1FA217B307E407F50720F07C
:10160000A21BB30BE40BF50B661F771F881F991FF6
:101610001A9469F760957095809590959B01AC013F
:10162000BD01CF010895A29FB001B39FC001A39F48
:10163000700D811D1124911DB29F700D811D11240B
:10164000911D08955058BB27AA270E943A0B0C946D
:10165000AD0C0E949F0C38F00E94A60C20F039F4CB
:101660009F3F19F426F40C949C0C0EF4E095E7FBD4
:101670000C94960CE92F0E94BE0C58F3BA1762071F
:1016800073078407950720F079F4A6F50C94E00C15
:101690000EF4E0950B2EBA2FA02D0B01B90190018D
:1016A0000C01CA01A0011124FF27591B99F0593FD1
:1016B00050F4503E68F11A16F040A22F232F342F19
:1016C0004427585FF3CF469537952795A795F04067
:1016D0005395C9F77EF41F16BA0B620B730B840B7C
:1016E000BAF09150A1F0FF0FBB1F661F771F881F34
:1016F000C2F70EC0BA0F621F731F841F48F487958C
:1017000077956795B795F7959E3F08F0B0CF93957D
:10171000880F08F09927EE0F9795879508950E94F6
:10172000720C08F481E008950E94A80B0C94AD0C93
:101730000E94A60C58F00E949F0C40F029F45F3FD5
:1017400029F00C94960C51110C94E10C0C949C0C07
:101750000E94BE0C68F39923B1F3552391F3951BB6
:10176000550BBB27AA2762177307840738F09F5FC2
:101770005F4F220F331F441FAA1FA9F335D00E2E2F
:101780003AF0E0E832D091505040E695001CCAF79C
:101790002BD0FE2F29D0660F771F881FBB1F26175F
:1017A00037074807AB07B0E809F0BB0B802DBF0136
:1017B000FF2793585F4F3AF09E3F510578F00C9405
:1017C000960C0C94E10C5F3FE4F3983ED4F38695BD
:1017D00077956795B795F7959F5FC9F7880F911D26
:1017E0009695879597F90895E1E0660F771F881F12
:1017F000BB1F621773078407BA0720F0621B730BC5
:10180000840BBA0BEE1F88F7E09508950E94C60C72
:1018100088F09F5798F0B92F9927B751B0F0E1F0B1
:10182000660F771F881F991F1AF0BA95C9F714C061
:10183000B13091F00E94E00CB1E008950C94E00CFE
:10184000672F782F8827B85F39F0B93FCCF386959A
:1018500077956795B395D9F73EF4909580957095F7
:1018600061957F4F8F4F9F4F0895E89409C097FB74
:101870003EF490958095709561957F4F8F4F9F4F67
:101880009923A9F0F92F96E9BB279395F6958795AB
:1018900077956795B795F111F8CFFAF4BB0F11F46E
:1018A00060FF1BC06F5F7F4F8F4F9F4F16C0882315
:1018B00011F096E911C0772321F09EE8872F762F4B
:1018C00005C0662371F096E8862F70E060E02AF08C
:1018D0009A95660F771F881FDAF7880F9695879578
:1018E00097F90895990F0008550FAA0BE0E8FEEF4D
:1018F00016161706E807F907C0F012161306E407D4
:10190000F50798F0621B730B840B950B39F40A26CC
:1019100061F0232B242B252B21F408950A2609F4AA
:10192000A140A6958FEF811D811D089597F99F67AE
:1019300080E870E060E008959FEF80EC0895002457
:101940000A941616170618060906089500240A9424
:1019500012161306140605060895092E0394000CAA
:1019600011F4882352F0BB0F40F4BF2B11F460FF39
:1019700004C06F5F7F4F8F4F9F4F089557FD905862
:10198000440F551F59F05F3F71F04795880F97FB43
:10199000991F61F09F3F79F08795089512161306FD
:1019A0001406551FF2CF4695F1DF08C0161617062C
:1019B0001806991FF1CF8695710561050894089561
:1019C000E894BB2766277727CB0197F908950E94F3
:1019D000720C08F48FEF08950E94720C880B990B1B
:1019E0000895991B79E004C0991F961708F0961B7B
:1019F000881F7A95C9F780950895EE0FFF1F05900F
:0A1A0000F491E02D0994F894FFCF53
:101A0A00000000009304C5014402F20154656D70A0
:101A1A0061742073616D7061680020202D46756CB9
:101A2A006C2D20202020200054454D504154205335
:101A3A00414D504148004F544F4D41544953004A7B
:101A4A006172616B3A0054696D65723A0030006EDA
:101A5A00616E00696E66006F766600313A00323A4E
:101A6A00005374616E642D4279202D203100537425
:081A7A00616E642D4279000049
:00000001FF
